:020000040800F2
:100000000000012095550008894900089149000821
:1000100099490008A1490008A9490008000000000A
:10002000000000000000000000000000F1A800082F
:10003000B149000800000000D1AA000819AB00086F
:10004000DD550008DD550008DD550008DD550008C8
:10005000DD550008DD550008DD550008DD550008B8
:10006000DD550008DD550008DD550008DD550008A8
:10007000DD550008DD550008DD550008DD55000898
:10008000DD550008DD550008DD550008DD55000888
:10009000DD550008DD550008DD550008DD55000878
:1000A000DD550008DD550008DD550008DD55000868
:1000B000DD550008DD550008DD550008DD55000858
:1000C000DD550008DD550008DD550008DD55000848
:1000D000DD550008DD550008DD550008DD55000838
:1000E000DD550008DD550008DD550008DD55000828
:1000F000DD550008DD550008DD550008DD55000818
:10010000DD550008DD550008DD550008DD55000807
:10011000DD550008DD550008BD490008D14900083B
:10012000DD550008DD550008DD550008DD550008E7
:1001300000000000000000000000000000000000BF
:1001400000000000000000000000000000000000AF
:10015000000000000000000000000000000000009F
:10016000000000000000000000000000000000008F
:10017000000000000000000000000000000000007F
:10018000000000000000000000000000000000006F
:10019000000000000000000000000000000000005F
:1001A000000000000000000000000000000000004F
:1001B000000000000000000000000000000000003F
:1001C000000000000000000000000000000000002F
:1001D000000000000000000000000000000000001F
:0401E0005FF8E0F1F3
:1001F00010B5054C237833B9044B13B10448AFF361
:1002000000800123237010BD340200200000000094
:1002100020DC000808B5034B1BB103490348AFF3CA
:10022000008008BD000000003802002020DC00082B
:10023000034613F8012B002AFBD1181A0138704726
:1002400081F0004102E000BF83F0004330B54FEA87
:1002500041044FEA430594EA050F08BF90EA020FF4
:100260001FBF54EA000C55EA020C7FEA645C7FEA87
:10027000655C00F0E2804FEA5454D4EB5555B8BFAA
:100280006D420CDD2C4480EA020281EA030382EA1B
:10029000000083EA010180EA020281EA0303362DAD
:1002A00088BF30BD11F0004F4FEA01314FF4801C80
:1002B0004CEA113102D0404261EB410113F0004F92
:1002C0004FEA03334CEA133302D0524263EB430349
:1002D00094EA050F00F0A780A4F10104D5F1200EE7
:1002E0000DDB02FA0EFC22FA05F2801841F1000142
:1002F00003FA0EF2801843FA05F359410EE0A5F116
:1003000020050EF1200E012A03FA0EFC28BF4CF046
:10031000020C43FA05F3C01851EBE37101F00045FC
:1003200007D54FF0000EDCF1000C7EEB00006EEB09
:100330000101B1F5801F1BD3B1F5001F0CD3490893
:100340005FEA30004FEA3C0C04F101044FEA4452EA
:1003500012F5800F80F09A80BCF1004F08BF5FEA71
:10036000500C50F1000041EB045141EA050130BD51
:100370005FEA4C0C404141EB0101013C28BFB1F563
:10038000801FE9D291F0000F04BF01460020B1FAAE
:1003900081F308BF2033A3F10B03B3F120020CDA81
:1003A0000C3208DD02F1140CC2F10C0201FA0CF05F
:1003B00021FA02F10CE002F11402D8BFC2F1200CC4
:1003C00001FA02F120FA0CFCDCBF41EA0C0190407A
:1003D000E41AA2BF01EB0451294330BD6FEA0404C3
:1003E0001F3C1CDA0C340EDC04F11404C4F12002AE
:1003F00020FA04F001FA02F340EA030021FA04F3C0
:1004000045EA030130BDC4F10C04C4F1200220FA16
:1004100002F001FA04F340EA0300294630BD21FA54
:1004200004F0294630BD94F0000F83F4801306BF1A
:1004300081F480110134013D4EE77FEA645C18BF0E
:100440007FEA655C29D094EA050F08BF90EA020FA5
:1004500005D054EA000C04BF1946104630BD91EA9D
:10046000030F1EBF0021002030BD5FEA545C05D1A0
:100470004000494128BF41F0004130BD14F58004DF
:100480003CBF01F5801130BD01F0004545F0FE4153
:1004900041F470014FF0000030BD7FEA645C1ABF88
:1004A000194610467FEA655C1CBF0B46024650EABF
:1004B000013406BF52EA033591EA030F41F40021EB
:1004C00030BD00BF90F0000F04BF0021704730B571
:1004D0004FF4806404F132044FF000054FF0000146
:1004E00050E700BF90F0000F04BF0021704730B507
:1004F0004FF4806404F1320410F0004548BF4042DC
:100500004FF000013EE700BF42004FEAE2014FEA30
:1005100031014FEA02701FBF12F07F4393F07F4F0B
:1005200081F06051704732F07F4208BF704793F00E
:100530007F4F04BF41F40021704730B54FF4607421
:1005400001F0004521F000411CE700BF50EA010224
:1005500008BF704730B54FF000050AE050EA0102CD
:1005600008BF704730B511F0004502D5404261EB3D
:1005700041014FF4806404F132045FEA915C3FF47E
:10058000D8AE4FF003025FEADC0C18BF03325FEA1B
:10059000DC0C18BF033202EBDC02C2F1200300FACC
:1005A00003FC20FA02F001FA03FE40EA0E0021FAF1
:1005B00002F11444BDE600BF70B54FF0FF0C4CF4DF
:1005C000E06C1CEA11541DBF1CEA135594EA0C0F91
:1005D00095EA0C0F00F0DEF82C4481EA030621EACC
:1005E0004C5123EA4C5350EA013518BF52EA033507
:1005F00041F4801143F4801338D0A0FB02CE4FF0B9
:100600000005E1FB02E506F00042E0FB03E54FF0E8
:100610000006E1FB03569CF0000F18BF4EF0010EE0
:10062000A4F1FF04B6F5007F64F5407404D25FEADC
:100630004E0E6D4146EB060642EAC62141EA55518F
:100640004FEAC52040EA5E504FEACE2EB4F1FD0CD1
:1006500088BFBCF5E06F1ED8BEF1004F08BF5FEA4F
:10066000500E50F1000041EB045170BD06F0004601
:1006700046EA010140EA020081EA0301B4EB5C04AE
:10068000C2BFD4EB0C0541EA045170BD41F48011A6
:100690004FF0000E013C00F3AB8014F1360FDEBFCB
:1006A000002001F0004170BDC4F10004203C35DAA7
:1006B0000C341BDC04F11404C4F1200500FA05F32A
:1006C00020FA04F001FA05F240EA020001F00042CB
:1006D00021F0004110EBD37021FA04F642EB060141
:1006E0005EEA430E08BF20EAD37070BDC4F10C046B
:1006F000C4F1200500FA04F320FA05F001FA04F22F
:1007000040EA020001F0004110EBD37041F100011A
:100710005EEA430E08BF20EAD37070BDC4F1200525
:1007200000FA05F24EEA020E20FA04F301FA05F28D
:1007300043EA020321FA04F001F0004121FA04F235
:1007400020EA020000EBD3705EEA430E08BF20EA05
:10075000D37070BD94F0000F0FD101F0004640003F
:1007600041EB010111F4801F08BF013CF7D041EAC1
:10077000060195F0000F18BF704703F000465200C5
:1007800043EB030313F4801F08BF013DF7D043EA96
:100790000603704794EA0C0F0CEA135518BF95EA4C
:1007A0000C0F0CD050EA410618BF52EA4306D1D1D3
:1007B00081EA030101F000414FF0000070BD50EAF2
:1007C000410606BF1046194652EA430619D094EA7C
:1007D0000C0F02D150EA013613D195EA0C0F05D166
:1007E00052EA03361CBF104619460AD181EA0301BA
:1007F00001F0004141F0FE4141F470014FF0000072
:1008000070BD41F0FE4141F4780170BD70B54FF00C
:10081000FF0C4CF4E06C1CEA11541DBF1CEA13558C
:1008200094EA0C0F95EA0C0F00F0A7F8A4EB05046E
:1008300081EA030E52EA03354FEA013100F0888065
:100840004FEA03334FF0805545EA131343EA12632E
:100850004FEA022245EA111545EA10654FEA0026E3
:100860000EF000419D4208BF964244F1FD0404F59C
:10087000407402D25B084FEA3202B61A65EB0305F8
:100880005B084FEA32024FF480104FF4002CB6EBB5
:10089000020E75EB030E22BFB61A754640EA0C0035
:1008A0005B084FEA3202B6EB020E75EB030E22BF75
:1008B000B61A754640EA5C005B084FEA3202B6EBB6
:1008C000020E75EB030E22BFB61A754640EA9C0075
:1008D0005B084FEA3202B6EB020E75EB030E22BF45
:1008E000B61A754640EADC0055EA060E18D04FEA03
:1008F000051545EA16754FEA06164FEAC30343EAA3
:1009000052734FEAC2025FEA1C1CC0D111F4801F6F
:100910000BD141EA00014FF000004FF0004CB6E768
:1009200011F4801F04BF01430020B4F1FD0C88BF07
:10093000BCF5E06F3FF6AFAEB5EB030C04BFB6EB12
:10094000020C5FEA500C50F1000041EB045170BD05
:100950000EF0004E4EEA113114EB5C04C2BFD4EB32
:100960000C0541EA045170BD41F480114FF0000EB6
:10097000013C90E645EA060E8DE60CEA135594EA32
:100980000C0F08BF95EA0C0F3FF43BAF94EA0C0F35
:100990000AD150EA01347FF434AF95EA0C0F7FF4AA
:1009A00025AF104619462CE795EA0C0F06D152EAFE
:1009B00003353FF4FDAE1046194622E750EA4106E2
:1009C00018BF52EA43067FF4C5AE50EA41047FF4F3
:1009D0000DAF52EA43057FF4EBAE12E74FF0FF3C58
:1009E00006E000BF4FF0010C02E000BF4FF0010C29
:1009F0004DF804CD4FEA410C7FEA6C5C4FEA430CA2
:100A000018BF7FEA6C5C1BD001B050EA410C0CBFF0
:100A100052EA430C91EA030F02BF90EA020F002052
:100A2000704710F1000F91EA030F58BF994208BFB9
:100A300090422CBFD8176FEAE37040F00100704776
:100A40004FEA410C7FEA6C5C02D150EA013C07D1CD
:100A50004FEA430C7FEA6C5CD6D152EA033CD3D018
:100A60005DF8040B704700BF8446104662468C4612
:100A70001946634600E000BF01B5FFF7B7FF002845
:100A800048BF10F1000F01BD4DF808EDFFF7F4FF6E
:100A90000CBF012000205DF808FB00BF4DF808EDF9
:100AA000FFF7EAFF34BF012000205DF808FB00BF1C
:100AB0004DF808EDFFF7E0FF94BF012000205DF83E
:100AC00008FB00BF4DF808EDFFF7CEFF94BF0120F3
:100AD00000205DF808FB00BF4DF808EDFFF7C4FFEC
:100AE00034BF012000205DF808FB00BF4FEA410C35
:100AF0007FEA6C5C02D150EA013C0AD14FEA430C18
:100B00007FEA6C5C02D152EA033C02D14FF0000054
:100B100070474FF0010070474FEA410212F5001292
:100B200015D211D56FF47873B3EB625212D94FEA34
:100B3000C12343F0004343EA505311F0004F23FA1E
:100B400002F018BF404270474FF00000704750EA73
:100B5000013005D111F0004008BF6FF00040704730
:100B60004FF00000704700BF4FEA4102B2F1E0438E
:100B700024BFB3F5001CDCF1FE5C0DD901F0004C84
:100B80004FEAC0024CEA5070B2F1004F40EB8300D4
:100B900008BF20F00100704711F0804F21D113F100
:100BA0003872BCBF01F00040704741F480114FEA39
:100BB0005252C2F11802C2F1200C10FA0CF320FAC2
:100BC00002F018BF40F001004FEAC1234FEAD323DF
:100BD00003FA0CFC40EA0C0023FA02F34FEA430349
:100BE000CCE77FEA625307D150EA01331EBF4FF0D2
:100BF000FE4040F44000704701F0004040F0FE40ED
:100C000040F40000704700BF80F0004002E000BFE9
:100C100081F0004142001FBF5FEA410392EA030FE7
:100C20007FEA226C7FEA236C6AD04FEA1262D2EB31
:100C30001363C1BFD218414048404140B8BF5B4236
:100C4000192B88BF704710F0004F40F4000020F0CF
:100C50007F4018BF404211F0004F41F4000121F0E5
:100C60007F4118BF494292EA030F3FD0A2F101022F
:100C700041FA03FC10EB0C00C3F1200301FA03F16D
:100C800000F0004302D5494260EB4000B0F5000F90
:100C900013D3B0F1807F06D340084FEA310102F14F
:100CA0000102FE2A51D2B1F1004F40EBC25008BF01
:100CB00020F0010040EA03007047490040EB0000CB
:100CC000013A28BFB0F5000FEDD2B0FA80FCACF1CC
:100CD000080CB2EB0C0200FA0CF0AABF00EBC250F9
:100CE00052421843BCBFD0401843704792F0000FE7
:100CF00081F4000106BF80F400000132013BB5E73A
:100D00004FEA41037FEA226C18BF7FEA236C21D0AF
:100D100092EA030F04D092F0000F08BF0846704714
:100D200090EA010F1CBF0020704712F07F4F04D1E2
:100D3000400028BF40F00040704712F100723CBFF5
:100D400000F50000704700F0004343F0FE4040F41F
:100D5000000070477FEA226216BF08467FEA2363DD
:100D60000146420206BF5FEA412390EA010F40F4C8
:100D7000800070474FF0000304E000BF10F0004314
:100D800048BF40425FEA000C08BF704743F09643FB
:100D900001464FF000001CE050EA010208BF704716
:100DA0004FF000030AE000BF50EA010208BF70479D
:100DB00011F0004302D5404261EB41015FEA010CB2
:100DC00002BF84460146002043F0B64308BFA3F1AA
:100DD0008053A3F50003BCFA8CF2083AA3EBC2538C
:100DE00010DB01FA02FC634400FA02FCC2F12002AB
:100DF000BCF1004F20FA02F243EB020008BF20F0E2
:100E00000100704702F1200201FA02FCC2F1200247
:100E100050EA4C0021FA02F243EB020008BF20EA3C
:100E2000DC7070474FF0FF0C1CEAD0521EBF1CEA6A
:100E3000D15392EA0C0F93EA0C0F6FD01A4480EA58
:100E4000010C400218BF5FEA41211ED04FF0006341
:100E500043EA501043EA5111A0FB01310CF000406D
:100E6000B1F5000F3EBF490041EAD3715B0040EA93
:100E7000010062F17F02FD2A1DD8B3F1004F40EB63
:100E8000C25008BF20F00100704790F0000F0CF036
:100E9000004C08BF49024CEA502040EA51207F3AFA
:100EA000C2BFD2F1FF0340EAC250704740F40000D5
:100EB0004FF00003013A5DDC12F1190FDCBF00F0C6
:100EC00000407047C2F10002410021FA02F1C2F174
:100ED000200200FA02FC5FEA310040F1000053EA10
:100EE0004C0308BF20EADC70704792F0000F00F05E
:100EF000004C02BF400010F4000F013AF9D040EA64
:100F00000C0093F0000F01F0004C02BF490011F4F7
:100F1000000F013BF9D041EA0C018FE70CEAD153F5
:100F200092EA0C0F18BF93EA0C0F0AD030F0004C75
:100F300018BF31F0004CD8D180EA010000F0004029
:100F4000704790F0000F17BF90F0004F084691F0E7
:100F5000000F91F0004F14D092EA0C0F01D1420221
:100F60000FD193EA0C0F03D14B0218BF084608D1EA
:100F700080EA010000F0004040F0FE4040F4000034
:100F8000704740F0FE4040F4400070474FF0FF0CC7
:100F90001CEAD0521EBF1CEAD15392EA0C0F93EA0E
:100FA0000C0F69D0A2EB030280EA010C49024FEA60
:100FB000402037D04FF0805343EA111143EA101319
:100FC0000CF000408B4238BF5B0042F17D024FF4D1
:100FD000000C8B4224BF5B1A40EA0C00B3EB510FAC
:100FE00024BFA3EB510340EA5C00B3EB910F24BF95
:100FF000A3EB910340EA9C00B3EBD10F24BFA3EB1A
:10100000D10340EADC001B0118BF5FEA1C1CE0D1E1
:10101000FD2A3FF650AF8B4240EBC25008BF20F094
:10102000010070470CF0004C4CEA50207F32C2BFE8
:10103000D2F1FF0340EAC250704740F400004FF085
:101040000003013A37E792F0000F00F0004C02BFB6
:10105000400010F4000F013AF9D040EA0C0093F080
:10106000000F01F0004C02BF490011F4000F013BDA
:10107000F9D041EA0C0195E70CEAD15392EA0C0F42
:1010800008D142027FF47DAF93EA0C0F7FF470AF7A
:10109000084676E793EA0C0F04D14B023FF44CAFBD
:1010A00008466EE730F0004C18BF31F0004CCAD152
:1010B00030F000427FF45CAF31F000437FF43CAF8E
:1010C0005FE700BF4FF0FF3C06E000BF4FF0010CB0
:1010D00002E000BF4FF0010C4DF804CD4FEA400292
:1010E0004FEA41037FEA226C18BF7FEA236C11D0DC
:1010F00001B052EA530C18BF90EA010F58BFB2EB8F
:10110000030088BFC81738BF6FEAE17018BF40F00E
:10111000010070477FEA226C02D15FEA402C05D1C2
:101120007FEA236CE4D15FEA412CE1D05DF8040B47
:10113000704700BF844608466146FFE70FB5FFF7DA
:10114000C9FF002848BF10F1000F0FBD4DF808ED92
:10115000FFF7F4FF0CBF012000205DF808FB00BF83
:101160004DF808EDFFF7EAFF34BF012000205DF8DD
:1011700008FB00BF4DF808EDFFF7E0FF94BF01202A
:1011800000205DF808FB00BF4DF808EDFFF7D2FF27
:1011900094BF012000205DF808FB00BF4DF808ED6A
:1011A000FFF7C8FF34BF012000205DF808FB00BF37
:1011B0004FEA4002B2F1FE4F0FD34FF09E03B3EB64
:1011C00012620DD94FEA002343F0004310F0004FA4
:1011D00023FA02F018BF404270474FF000007047FA
:1011E00012F1610F01D1420205D110F0004008BF99
:1011F0006FF0004070474FF00000704780B582B03C
:1012000000AF0346FB71FB79002B06D100224FF49F
:101210008051074805F0B1F905E001224FF48051F3
:10122000034805F0AAF900BF0837BD4680BD00BFDE
:101230000020014080B500AF0821054805F086F97F
:101240000346002B01D1012300E00023184680BD96
:101250000020014080B500AF1021054805F076F967
:101260000346002B01D1012300E00023184680BD76
:101270000020014080B500AF2021054805F066F947
:101280000346002B01D1012300E00023184680BD56
:101290000020014080B582B000AF0346FB71FFF72C
:1012A000C9FF0346012B0ED1114B1B881A46FB794F
:1012B00001335B009A420CDA0D4B1B8801339AB262
:1012C0000B4B1A8005E00A4B00221A80094B0022C2
:1012D0001A80074B1B88022B04D1064B01221A806F
:1012E000012300E0002318460837BD4680BD00BF3B
:1012F000560200205002002080B582B000AF0346A5
:10130000FB71FFF7A7FF0346012B0ED1114B1B8882
:101310001A46FB7901335B009A420CDA0D4B1B88AD
:1013200001339AB20B4B1A8005E00A4B00221A8057
:10133000094B00221A80074B1B88022B04D1064B55
:1013400001221A80012300E0002318460837BD4619
:1013500080BD00BF580200205202002080B582B03C
:1013600000AF0346FB71FFF785FF0346012B0ED14B
:10137000114B1B881A46FB7901335B009A420CDA49
:101380000D4B1B8801339AB20B4B1A8005E00A4BB8
:1013900000221A80094B00221A80074B1B88022B5F
:1013A00004D1064B01221A80012300E000231846D5
:1013B0000837BD4680BD00BF5A02002054020020FD
:1013C00080B483B000AF78607B689B6903F0020350
:1013D000022B0CBF01230023DBB218460C37BD469D
:1013E00080BC704780B483B000AF78607B681B68B6
:1013F00043F480727B681A6000BF0C37BD4680BC26
:10140000704780B483B000AF78607B681B6843F49A
:1014100000727B681A6000BF0C37BD4680BC704705
:1014200080B483B000AF78600B46FB707B681B69AB
:1014300023F0FF02FB781A437B681A6100BF0C3768
:10144000BD4680BC7047000080B582B000AF034647
:101450000A46FB711346BB7100BF1F48FFF7B0FF80
:101460000346002BF9D11C48FFF7BCFF00BF1B4906
:10147000194800F0B1FB0346002BF8D00022782178
:10148000154800F08DFB00BF1549134800F0A4FB80
:101490000346002BF8D0FB7919460F48FFF7C0FF31
:1014A00000BF10490C4800F097FB0346002BF8D012
:1014B000BB7919460848FFF7B3FF00BF0949064842
:1014C00000F08AFB0346002BF8D00348FFF799FF92
:1014D00000BF0837BD4680BD005400400100030036
:1014E000820007008400070080B500AF00F04EFBCB
:1014F000642004F0A7F8AE210020FFF7A5FFA62185
:101500000020FFF7A1FFAE210020FFF79DFFD521AE
:101510000020FFF799FF80210020FFF795FFA82109
:101520000020FFF791FF1F210020FFF78DFFD3213F
:101530000020FFF789FF00210020FFF785FF4021F1
:101540000020FFF781FF8D210020FFF77DFF142190
:101550000020FFF779FF20210020FFF775FF02210F
:101560000020FFF771FFA1210020FFF76DFFC821C8
:101570000020FFF769FFDA210020FFF765FF022155
:101580000020FFF761FF81210020FFF75DFFCF21E1
:101590000020FFF759FFD9210020FFF755FFF12167
:1015A0000020FFF751FFDB210020FFF74DFF402116
:1015B0000020FFF749FF2E210020FFF745FFA4215F
:1015C0000020FFF741FFA6210020FFF73DFFAF21DC
:1015D0000020FFF739FF002000F046F800F00EF879
:1015E000054B00221A80044B00225A80024B012234
:1015F0005A7100BF80BD00BF5C04002080B582B07E
:1016000000AF0023FB7125E0FB79503BDBB21946AC
:101610000020FFF719FF00210020FFF715FF102120
:101620000020FFF711FF0023BB710CE0BA79FB79B2
:10163000DB0113440B4AD35C19464020FFF704FF3B
:10164000BB790133BB7197F90630002BEEDAFB79D9
:101650000133FB71FB79072BD6D900BF00BF0837D8
:10166000BD4680BD5C02002080B582B000AF03465D
:10167000FB71FB79002B01D1002300E0FF234FF425
:101680000072194603480AF0F8F900BF0837BD4652
:1016900080BD00BF5C02002080B483B000AF034671
:1016A000FB800B46BB801346FB70FB887F2B48D822
:1016B000BB881F2B45D8254B1B79002B06D0FB7808
:1016C000002B0CBF01230023DBB2FB70FB78012B46
:1016D0001AD1FA88BB88DB0898B20346DB011344B1
:1016E0001B4AD35C5AB2BB8803F00703012101FAFD
:1016F00003F35BB2134359B2FA880346DB01134488
:10170000C9B2134AD1541DE0FA88BB88DB0898B2ED
:101710000346DB0113440E4AD35C5AB2BB8803F084
:101720000703012101FA03F35BB2DB435BB2134011
:1017300059B2FA880346DB011344C9B2044AD154B2
:1017400000E000BF0C37BD4680BC70475C04002041
:101750005C02002080B483B000AF03460A46FB80E1
:101760001346BB80054AFB881380044ABB8853801C
:1017700000BF0C37BD4680BC704700BF5C04002032
:1017800080B586B000AF03463960FB711346BB716C
:10179000394B1B881A463B681B7813447F2B07DCA8
:1017A000354B5B881A463B685B7813441F2B01DD81
:1017B00000235DE000237B614BE03B685A68FB79C6
:1017C000203B3968497801FB03F319467B690B44D8
:1017D0005B0013441B88FB6000233B6130E0FA6828
:1017E0003B6902FA03F303F40043002B10D0224BB1
:1017F0001A883B699BB2134498B21F4B5A887B6985
:101800009BB213449BB2BA791946FFF745FF14E027
:10181000194B1A883B699BB2134498B2164B5A88ED
:101820007B699BB2134499B2BB79002B0CBF012397
:101830000023DBB21A46FFF72FFF3B6901333B6100
:101840003B681B781A463B699342C8D37B690133D6
:101850007B613B685B781A467B699342ADD3064B4C
:101860001B883A68127813449AB2034B1A80FB79AA
:1018700018461837BD4680BD5C04002080B584B092
:1018800000AFF860B9601346FB7112E0FB681B788B
:10189000FA79B9681846FFF773FF03461A46FB68E2
:1018A0001B789A4202D0FB681B7808E0FB68013382
:1018B000FB60FB681B78002BE8D1FB681B7818469F
:1018C0001037BD4680BD80B500AF0020FFF7CCFECD
:1018D00000BF80BD80B500AFFFF790FE00BF80BDA8
:1018E00080B582B000AF7860084611461A460346BC
:1018F000FB700B46BB7013467B707B78002B01D0CE
:10190000FFF7E1FFFB789BB2BA7892B21146184616
:10191000FFF720FF012206497868FFF7AFFF3B7C05
:10192000002B01D0FFF7D6FF00BF0837BD4680BDB2
:101930000000002080B584B002AF786008461146F0
:101940001A460346FB700B46BB7013467B70FB7850
:10195000002B12D0FB78032B0FD8FB781A4692008D
:1019600013445B00DBB20A3BDAB2B9787B780093B0
:101970000B4600217868FFF7B3FF00BF0837BD466C
:1019800080BD000080B582B000AF786039607B68B0
:10199000053B032B00F2C48001A252F823F000BFE4
:1019A000B11900080D1A0008691A0008C51A0008C4
:1019B0003B68053B032B27D801A252F823F000BF58
:1019C000D1190008DF190008ED190008FB190008FB
:1019D0000123012201215548FFF7ACFF15E0012347
:1019E000012201215248FFF7A5FF0EE00123012249
:1019F00001215048FFF79EFF07E00123012201214A
:101A00004D48FFF797FF00E000BF8AE03B68053BC9
:101A1000032B27D801A252F823F000BF2D1A00088B
:101A20003B1A0008491A0008571A0008012301222E
:101A300001214248FFF77EFF15E001230122012129
:101A40003F48FFF777FF0EE00123012201213D48C7
:101A5000FFF770FF07E00123012201213A48FFF759
:101A600069FF00E000BF5CE03B68053B032B27D823
:101A700001A252F823F000BF891A0008971A000843
:101A8000A51A0008B31A00080123012201212F48DA
:101A9000FFF750FF15E00123012201212C48FFF739
:101AA00049FF0EE00123012201212A48FFF742FFEE
:101AB00007E00123012201212748FFF73BFF00E057
:101AC00000BF2EE03B68053B032B27D801A252F84C
:101AD00023F000BFE51A0008F31A0008011B0008F4
:101AE0000F1B00080123012201211C48FFF722FFE0
:101AF00015E00123012201211948FFF71BFF0EE029
:101B00000123012201211748FFF714FF07E00123F9
:101B1000012201211448FFF70DFF00E000BF00E0A3
:101B200000BF00BF0837BD4680BD00BF38DC0008DD
:101B300044DC000858DC000864DC000874DC0008A1
:101B400080DC000890DC000898DC0008A8DC0008B5
:101B5000B8DC0008C4DC0008D8DC0008E8DC0008B9
:101B6000ECDC0008F8DC00080CDD000880B483B071
:101B700000AF78607B681B6843F001027B681A60E5
:101B800000BF0C37BD4680BC7047000080B500AF79
:101B90000248FFF7EBFF00BF80BD00BF00540040CC
:101BA00080B483B000AF78600B46FB701346BB7007
:101BB000BB78002B04D0FB7843F00103FB7003E0FB
:101BC000FB7823F00103FB70FA787B681A6100BF91
:101BD0000C37BD4680BC704780B487B000AF7860DA
:101BE000396000233B610023FB600023BB600023BE
:101BF000FB757B685B69FB607B689B69BB60BB684E
:101C00001B04BB60FA68BB68134323F07F433B614E
:101C10003A693B6813403A689A4202D10123FB7546
:101C200001E00023FB75FB7D18461C37BD4680BCD8
:101C30007047000080B500AF072000F025FB034689
:101C40001A468C4B1A60082000F01EFB03461A4609
:101C5000894B1A60052000F017FB03461A46874B94
:101C60001A60062000F010FB03461A46844B1A60E7
:101C700000F0D0FA03461A46824B1A607D4B1B686F
:101C8000FF2B10D17C4B1B68FF2B0CD17B4B1B68AF
:101C9000FF2B08D17A4B1B68FF2B04D106210320B0
:101CA00000F0E2FBDDE1734B1B68002B10D1724B9F
:101CB0001B68002B0CD1714B1B68002B08D1704B9B
:101CC0001B68002B04D10621032000F0CDFBC8E1E6
:101CD000684B1B68C02B0BD0674B1B68C02B07D011
:101CE000664B1B68C02B03D0654B1B68C02B04D10F
:101CF0000621032000F0B8FBB3E15E4B1B689AB2EB
:101D0000614B1A80614B1B881A46614BDB8A013B91
:101D100042FA03F303F00103002B0CBF012300235D
:101D2000DBB21A46584BDA70584B1B881A46584B90
:101D30005B8A013B42FA03F303F00103002B0CBF63
:101D400001230023DBB21A464F4B9A704F4B1B887E
:101D50001A464F4B9B8A013B42FA03F303F00103FF
:101D6000002B0CBF01230023DBB21A46464B5A71ED
:101D7000464B1B881A46464B1B8A013B42FA03F32B
:101D800003F00103002B0CBF01230023DBB21A4632
:101D90003D4B1A713F4B1868002300223A4907F067
:101DA0001BFA364B1B687C2B03DD344B1B68962BD0
:101DB00008DD394B1868314B1B6819460023032294
:101DC00008F01EFC314B1B881A46314B1B8B013B24
:101DD00042FA03F303F00103002B04D12F4B93F9D4
:101DE0000030002B10D0294B1B881A46284B1B8B28
:101DF000013B42FA03F303F00103002B16D0274BFB
:101E000093F90030012B11D1224B186800230022D6
:101E1000234907F0E1F9214B93F90030002B0CBF67
:101E200001230023DBB25AB21C4B1A70174B1B88DC
:101E30001A46174B9B8B013B42FA03F303F0010355
:101E4000002B33D1174B93F90030002B2ED1164BBA
:101E5000186800230022002108F0D2FB114B93F9EF
:101E60000030002B0CBF01230023DBB25AB20D4B14
:101E70001A7037E064040020680400206C0400201D
:101E800070040020740400208C04002096040020BC
:101E90000C000020E8040020E0040020880400205A
:101EA0009404002089040020D00400206D4B1B887E
:101EB0001A466D4B9B8B013B42FA03F303F001037F
:101EC000002B0FD0694B93F90030012B0AD1674BDF
:101ED00093F90030002B0CBF01230023DBB25AB270
:101EE000624B1A705F4B1B881A465F4BDB8B013BC2
:101EF00042FA03F303F00103002B17D15C4B93F973
:101F00000030002B12D15B4B186800230022002107
:101F100008F076FB564B93F90030002B0CBF0123E1
:101F20000023DBB25AB2524B1A701BE04D4B1B8898
:101F30001A464D4BDB8B013B42FA03F303F00103DE
:101F4000002B0FD04A4B93F90030012B0AD1484B9C
:101F500093F90030002B0CBF01230023DBB25AB2EF
:101F6000434B1A70444B1B68053B0B2B65D801A2F1
:101F700052F823F0A51F0008C31F0008E11F000846
:101F8000FF1F00083B2000083B2000083B20000802
:101F90003B2000083B200008312000081D200008DD
:101FA00027200008354B1B68002B53D1344B186891
:101FB00000230322052108F023FB304B01221A6085
:101FC00048E0304B1B68002B46D12D4B186800238E
:101FD0000322062108F014FB2A4B01221A603BE081
:101FE000294B1B68002B39D1254B1868002303228D
:101FF000072108F005FB244B01221A602EE0234B39
:102000001B68002B2CD11E4B1868002303220821CB
:1020100008F0F6FA1D4B01221A6021E0022101208E
:1020200000F022FA1DE00421022000F01DFA18E061
:102030000021032000F018FA13E0104B00221A6070
:10204000114B00221A600F4B00221A600F4B002226
:102050001A6006E000BF04E000BF02E000BF00E03D
:1020600000BF80BD960400200C00002089040020E1
:102070008A040020E4040020740400207804002076
:10208000D4040020800400207C040020840400206C
:1020900080B584B000AF0346FB710123FB81264B62
:1020A00000225A700123FB813BE0FB899BB21A4658
:1020B000FB791340002B05D0012280211F4804F03A
:1020C0005CFA04E0002280211C4804F056FA012248
:1020D00020211A4804F051FA052000F0B7FD002233
:1020E0002021164804F049FA052000F0AFFD012236
:1020F0002021124804F041FA4021104804F026FA49
:102100000346002B08D0FB899BB2DAB20A4B5B78FE
:102110001343DAB2084B5A70FB899BB25B009BB247
:10212000FB81FB899BB2FF2BBFD9102000F08EFDF5
:1021300000BF1037BD4680BD980400200008014054
:1021400080B582B000AF0023FB710123BB80002269
:1021500010212D4804F011FA2C4B1B781846FFF77C
:1021600097FF2A4B5B781846FFF792FF0223FB711B
:102170003DE00123BB802EE001222021224804F013
:10218000FCF9052000F062FD002220211E4804F029
:10219000F4F9052000F05AFD012220211A4804F02C
:1021A000ECF94021184804F0D1F90346002B0DD07A
:1021B000BB889BB2DAB2FB79DBB21946144B5B5C8D
:1021C000F979C9B21343DAB2114B5A54BB889BB2A6
:1021D0005B009BB2BB80BB889BB2FF2BCCD910208D
:1021E00000F034FDFB79DBB20133DBB2FB71FB792C
:1021F000DBB2082BBDD901221021034804F0BDF940
:1022000000BF0837BD4680BD00080140080000201F
:102210009804002080B582B000AF00F045F8FFF7C9
:102220008FFF164B1B791B021AB2144BDB781BB2C3
:1022300013431BB29AB2124B1A800023FB7114E0B5
:102240000F4B1B881946FB790E4A32F81330013BBD
:1022500041FA03F303F00103002B03D1FB790133AF
:10226000DBB206E0FB790133FB71FB790F2BE7D979
:10227000002318460837BD4680BD00BF98040020E3
:10228000960400200C00002080B483B000AF034609
:10229000FB71FB79034AD35C18460C37BD4680BC02
:1022A000704700BF9804002080B483B000AF0023C3
:1022B000FB7106E0FB79074A0021D154FB79013319
:1022C000FB71FB79082BF5D900BF00BF0C37BD4669
:1022D00080BC70479804002080B500AF0022102118
:1022E0000F4804F04AF9102000F0B0FC0120FFF77D
:1022F000CFFE4220FFF7CCFE0020FFF7C9FE0020F2
:10230000FFF7C6FE0020FFF7C3FE0122102104489C
:1023100004F033F9102000F099FC00BF80BD00BF2D
:102320000008014080B500AF00221021154804F0DC
:1023300024F9102000F08AFC0120FFF7A9FE4320B9
:10234000FFF7A6FE0020FFF7A3FE0120FFF7A0FE87
:102350000020FFF79DFE0020FFF79AFE0020FFF708
:1023600097FE0020FFF794FE0020FFF791FE012268
:102370001021044804F001F9102000F067FC00BFB0
:1023800080BD00BF0008014080B500AF00221021D1
:10239000134804F0F2F80120FFF77AFE4420FFF71B
:1023A00077FE0020FFF774FE0120FFF771FE032087
:1023B000FFF76EFE0020FFF76BFE0020FFF768FEC0
:1023C0000020FFF765FE0020FFF762FE01221021CA
:1023D000034804F0D2F8102000F038FC00BF80BDA4
:1023E0000008014080B500AF00221021154804F01C
:1023F000C4F8102000F02AFC0120FFF749FE43201A
:10240000FFF746FE0020FFF743FE0020FFF740FEE7
:102410005A20FFF73DFE5A20FFF73AFE5A20FFF7F9
:1024200037FE5A20FFF734FE5A20FFF731FE012213
:102430001021044804F0A1F8102000F007FC00BFB0
:1024400080BD00BF0008014080B500AFFFF744FF2A
:10245000FFF742FFFFF740FFFFF764FFFFF794FF2E
:10246000FFF7C0FF00BF80BD80B584B000AF03465A
:102470000A46FB711346BB71FB79FB73FB7B032B95
:1024800010D0032B17DC012B02D0022B05D012E059
:10249000BB79184600F036F82CE0BB79184600F0FE
:1024A000D1F827E0BB79184600F02CF8BB79184624
:1024B00000F0C8F81EE000220421104804F05DF886
:1024C000002208210D4804F058F8002210210B4882
:1024D00004F053F800220221094804F04EF80022CB
:1024E0008021064804F049F800220421044804F041
:1024F00044F800BF00BF1037BD4680BD0018014042
:102500000020014080B582B000AF0346FB71FB792B
:10251000062B00F2818001A252F823F03925000831
:10252000592500087925000899250008B9250008D3
:10253000D9250008F925000801220421404804F0AB
:102540001CF8002208213E4804F017F80022102150
:102550003B4804F012F86FE000220421384804F0F0
:102560000CF801220821364804F007F80022102157
:10257000334804F002F85FE000220421304803F001
:10258000FCFF002208212E4803F0F7FF0122102152
:102590002B4803F0F2FF4FE001220421284803F00A
:1025A000ECFF01220821264803F0E7FF002210215A
:1025B000234803F0E2FF3FE001220421204803F01A
:1025C000DCFF002208211E4803F0D7FF0122102162
:1025D0001B4803F0D2FF2FE000220421184803F02B
:1025E000CCFF01220821164803F0C7FF0122102169
:1025F000134803F0C2FF1FE001220421104803F03A
:10260000BCFF012208210E4803F0B7FF0122102170
:102610000B4803F0B2FF0FE000220421084803F04A
:10262000ACFF00220821064803F0A7FF002210217A
:10263000034803F0A2FF00BF00BF0837BD4680BDBE
:102640000018014080B582B000AF0346FB71FB79F2
:10265000062B00F2818001A252F823F079260008AF
:1026600099260008B9260008D9260008F92600088E
:10267000192700083927000801220221404803F0E9
:102680007CFF002280213F4803F077FF00220421D5
:102690003B4803F072FF6FE000220221384803F04C
:1026A0006CFF01228021374803F067FF00220421DC
:1026B000334803F062FF5FE000220221304803F05C
:1026C0005CFF002280212F4803F057FF01220421E4
:1026D0002B4803F052FF4FE001220221284803F06B
:1026E0004CFF01228021274803F047FF00220421EC
:1026F000234803F042FF3FE001220221204803F07B
:102700003CFF002280211F4803F037FF01220421F3
:102710001B4803F032FF2FE000220221184803F08B
:102720002CFF01228021174803F027FF01220421FA
:10273000134803F022FF1FE001220221104803F09A
:102740001CFF012280210F4803F017FF0122042102
:102750000B4803F012FF0FE000220221084803F0AB
:102760000CFF00228021074803F007FF002204210C
:10277000034803F002FF00BF00BF0837BD4680BD1D
:10278000002001400018014080B500AF4FF47A707E
:1027900007F0AEF900210320FFF766FE4FF47A70D0
:1027A00007F0A6F901210320FFF75EFE4FF47A70CF
:1027B00007F09EF902210320FFF756FE4FF47A70CE
:1027C00007F096F903210320FFF74EFE4FF47A70CD
:1027D00007F08EF904210320FFF746FE4FF47A70CC
:1027E00007F086F905210320FFF73EFE4FF47A70CB
:1027F00007F07EF906210320FFF736FE4FF47A70CA
:1028000007F076F900BFC1E780B584B000AF0023C0
:10281000FB730023BB7300233B714FF0FF33BB609E
:102820000023FB71284B1B68391DBA68184606F057
:10283000D5FD0346012B12D13B79002B07D1FB7B41
:10284000002B0CBF01230023DBB2FB7307E097F9D9
:102850000E30002B0CBF01230023DBB2BB73FB7BCC
:10286000012B04D1FB7B1846FEF7C8FCDAE797F989
:102870000E30012B17D1FB79002B05D10120FEF77B
:10288000BDFC0A23BB6005E0FB79192B02D10020B7
:10289000FEF7B4FCFB790133FB71FB794B2BC1D103
:1028A0000023FB71BEE797F90E30002BBAD14FF031
:1028B000FF33BB600023FB71FB7B002BB2D1FB7BA2
:1028C0001846FEF79BFCADE7E804002080B500AF9A
:1028D0000F4B1B68002B05D001224FF440410D48DF
:1028E00003F04BFE0C4B1B68002B05D04FF400414E
:1028F000084803F05AFE05E000224FF44041054825
:1029000003F03BFE4FF47A7007F0F2F8E0E700BF07
:10291000A404002000200140A804002080B500AFDE
:102920000120FEF7B7FC0346012B13D11B4B1B689C
:10293000002B0CBF01230023DBB21A46174B1A6091
:10294000174B1B68002B0CBF01230023DBB21A4678
:10295000134B1A600120FEF7CFFC0346012B09D16F
:102960000E4B1B68002B0CBF01230023DBB21A4661
:102970000A4B1A600120FEF7F1FC0346012B09D136
:10298000074B1B68002B0CBF01230023DBB21A4648
:10299000034B1A60642007F0ABF8C1E7A4040020E1
:1029A000A804002080B500AFFFF744F9142007F019
:1029B0009FF800BFF8E780B584B000AF0523BB6087
:1029C00007F108024FF0FF330021002007F0BEFDA1
:1029D0003A1D4FF47A734FF0FF31002007F0B6FD37
:1029E000F860FB68012B06D1BB687A68114618466F
:1029F000FEF7C8FFE4E7FEF766FFFEF76BFFDFE7D1
:102A000080B586B000AF4FF000037B6100233B60D0
:102A10003B1D00221A605A609A60DA604FF0FF3165
:102A2000012007F04BFD01F099FB78617869FDF713
:102A30006BFD02460B463846054908F0BBFF384699
:102A4000012300220221FEF775FF00BFE6E700BF69
:102A500018DD000880B500AF00F09CF900F0A6FE7C
:102A60000A2007F045F800BFF6E7000080B582B005
:102A700000AF094B1B6839461422184606F0AEFC1D
:102A80000346012B04D13B4693E8030000F0C0FE4F
:102A90000A2007F02DF8ECE7E804002080B582B0AA
:102AA00000AF0021002001F031FB3A464FF0FF3328
:102AB0000021002007F04AFD3B687C2B03D8FB79FE
:102AC000013BFB7102E0FB790133FB71FB79194695
:102AD000002001F01BFBE8E780B58CB000AF0023BD
:102AE000FB854FF000024FF00003C7E908234FF0C9
:102AF00000024FF00003C7E9062300237B6007F1C3
:102B0000080300221A605A609A60DA604FF0FF31C1
:102B1000012007F0D3FC2C4802F0A2FE0A212A482B
:102B200002F04CFF284803F04FF80346FB85FB8D6D
:102B30001846FDF7D7FC4FF00002244BFDF766FE68
:102B400002460B461046194619A3D3E90023FDF7A8
:102B500033FD02460B46C7E90823D7E9082316A12F
:102B6000D1E90001FDF770FB02460B4610461946FD
:102B700013A3D3E90023FDF749FE02460B46104696
:102B800019464FF00002124BFDF760FB02460B4660
:102B9000C7E90623381DD7E906230E4908F00AFFC6
:102BA000381D012300220221FEF7C4FE00BFADE75D
:102BB0006666666666660A40E17A14AE47E1F63FED
:102BC00022FDF675E09C713F780800200000B040BF
:102BD000000039402CDD000880B500AF0E4803F03E
:102BE00093F900F01DF800F0D3FE01F0C5F901F0F3
:102BF00065FAFEF779FC0123012201210748FEF75F
:102C000099FEFFF721FC002300220021002000F0A4
:102C1000DDFA00BF80BD00BF7808002040DD00085D
:102C200080B400AF074BDB68064A43F08073D36083
:102C3000054B1B68044A43F00103136000BFBD4607
:102C400080BC7047F0ED00E0001000E080B485B07B
:102C500000AF78600D4B5B68FB600D4B1B680D4A45
:102C6000A2FB03239A0C7B6802FB03F3BB6000BF4B
:102C7000064B5A68FB68D31ABA689A42F8D800BF64
:102C800000BF1437BD4680BC704700BF001000E095
:102C90005C00002083DE1B4380B485B000AF034698
:102CA000FB710023FB81FB79032B41D801A252F871
:102CB00023F000BFC52C0008DF2C0008FD2C000805
:102CC000172D00081E4B5B6A9BB2C3F5FF437F3391
:102CD0009BB2FB811A4B47F6FF725A6229E04FF014
:102CE00080435B6A9BB2C3F5FF437F339BB2FB819A
:102CF0004FF0804347F6FF725A621AE0114B5B6A4D
:102D00009BB2C3F5FF437F339BB2FB810D4B47F66C
:102D1000FF725A620DE00C4B5B6A9BB2C3F5FF4336
:102D20007F339BB2FB81084B47F6FF725A6200E08B
:102D300000BFB7F90E3018461437BD4680BC704747
:102D400000080040000C00400004004080B483B044
:102D500000AF78600B4B1A687B681A607B6804339D
:102D6000094A12681A607B680833084A12681A60B8
:102D70007B680C33064A12681A6000BF0C37BD46E8
:102D800080BC7047AC040020B0040020B4040020D4
:102D9000B804002080B500AF0020FFF77DFF034698
:102DA0001A46124B1B689B1A104A13600120FFF74A
:102DB00073FF03461A460E4B1B689B1A0C4A13609E
:102DC0000220FFF769FF03461A460A4B1B681344AB
:102DD000084A13600320FFF75FFF03461A46064BBD
:102DE0001B681344044A136000BF80BDAC0400207C
:102DF000B0040020B4040020B804002080B485B0E2
:102E000000AFF860B9607A60FB68064A1A60BB6878
:102E1000054A1A607B6880221A6000BF1437BD46DD
:102E200080BC7047F00400204405002080B582B0CB
:102E300002AF002206210A2006F074F903463F4A39
:102E4000136000220121042006F06CF903463C4A7D
:102E500013603C4B01930323009300234FF48062E3
:102E600039493A4806F00CFD394B01930023009391
:102E7000002380223749384806F002FD374B019382
:102E800001230093002380223549364806F0F8FCE0
:102E9000354B0193002300930023802233493448AB
:102EA00006F0EEFC334B01930023009300238022B5
:102EB0003149324806F0E4FC314B01930223009380
:102EC00000234FF480722F492F4806F0D9FC2F4B76
:102ED00001930123009300234FF480722C492D4865
:102EE00006F0CEFC2C4B0193032300930023802299
:102EF0002A492B4806F0C4FC2A4B01930223009375
:102F000000234FF400722849284806F0B9FC284BEA
:102F1000019301230093002380222649264806F0CE
:102F2000AFFC264B01930023009300238022244909
:102F3000244806F0A5FC00BFBD4680BDE804002083
:102F4000EC040020BC04002054DD0008053000081B
:102F5000C004002058DD0008C92F0008C404002068
:102F60005CDD0008DD2F0008C804002060DD0008DB
:102F7000F12F0008CC04002064DD0008193000089F
:102F8000D00400206CDD00082D300008D40400209F
:102F900078DD000841300008D804002080DD0008FA
:102FA00055300008DC04002088DD00086930000886
:102FB000E004002090DD00087D300008E4040020DB
:102FC00098DD00089130000880B582B000AF7860CD
:102FD000FFF7DAFB00BF0837BD4680BD80B582B081
:102FE00000AF7860FFF79AFC00BF0837BD4680BD90
:102FF00080B582B000AF7860FFF768FC00BF08378B
:10300000BD4680BD80B582B000AF7860FFF7CAFCD6
:1030100000BF0837BD4680BD80B582B000AF786084
:10302000FFF7F2FB00BF0837BD4680BD80B582B018
:1030300000AF7860FFF7E4FC00BF0837BD4680BDF5
:1030400080B582B000AF7860FFF7B5FC00BF0837ED
:10305000BD4680BD80B582B000AF7860FFF7FAFC56
:1030600000BF0837BD4680BD80B582B000AF786034
:10307000FFF7FCFC00BF0837BD4680BD80B582B0BD
:1030800000AF7860FFF70AFD00BF0837BD4680BD7E
:1030900080B582B000AF7860FFF71EFD00BF083733
:1030A000BD4680BD80B400AF024B1846BD4680BC13
:1030B000704700BF0000824480B483B000AF034675
:1030C000FB71FB79002B03D1054B00221A7002E043
:1030D000034B01221A7000BF0C37BD4680BC7047FD
:1030E000C807002090B583B000AF044608461146DB
:1030F0001A462346FB800346BB800B467B80134663
:103100003B80B7F9063013F5616F0ADBB7F906307B
:10311000B3F5616F05DCB7F906301946002000F001
:1031200097FEB7F9043013F5616F0ADBB7F9043085
:10313000B3F5616F05DCB7F904301946012000F0E2
:1031400087FEB7F9023013F5616F0ADBB7F9023079
:10315000B3F5616F05DCB7F902301946022000F0C3
:1031600077FEB7F9003013F5616F0ADBB7F900306D
:10317000B3F5616F05DCB7F900301946032000F0A4
:1031800067FE00BF0C37BD4690BD000080B582B021
:1031900000AF0346FB71002300220021002000F055
:1031A00015F8042000F02CFD064B00221A70064B87
:1031B00000221A70FB79184600F0FEFD00BF0837A8
:1031C000BD4680BD94070020C807002090B585B09B
:1031D00000AF0446084611461A462346FB800346C4
:1031E000BB800B467B8013463B80184B01221A7034
:1031F000174AFB881384164ABB885384144A7B8879
:103200009384134A3B88D3840023FB7316E0FB7B33
:103210000F4A103332F913301846FDF763F90246AE
:103220000B4610461946FDF79FFC0246FB7B1146F4
:10323000184600F071FDFB7B0133FB73FB7B032B16
:10324000E5D900BF00BF1437BD4690BD94070020EC
:10325000A007002080B58AB000AF786000237B62B1
:1032600007F1080300221A605A609A60DA6000F0E1
:10327000D3F83862FFF716FFF86100F0C3F8B861C1
:1032800000F0D4F800237B621EE05A4A7B6A52F8B1
:103290002330642202FB03F31846FDF76FFD03465B
:1032A000396A1846FDF7BEFD0346F9691846FDF771
:1032B0006DFE03461A467B6A9B0028333B4443F865
:1032C000202C7B6A01337B627B6A032BDDDDBB68CC
:1032D000FA6811461846FDF79DFC03461A463B69FD
:1032E00019461046FDF796FC03461A467B691946B7
:1032F0001046FDF78FFC03464FF081411846FDF75D
:1033000045FE03461846FDF753FF03461AB27B6895
:103310001A80BB68FA6811461846FDF779FC034627
:103320001A463B6919461046FDF772FC03461A46D9
:103330007B6919461046FDF76DFC034683F0004398
:103340004FF081411846FDF721FE03461846FDF770
:103350002FFF03461AB27B685A80BB68FA68114691
:103360001846FDF757FC03461A463B6919461046B6
:10337000FDF74EFC03461A467B6919461046FDF7D9
:1033800047FC034683F000434FF081411846FDF7A8
:10339000FDFD0346B9691846FDF7F8FD03461649D9
:1033A0001846FDF73FFD03461846FDF701FF0346AB
:1033B0001AB27B689A80114B1B78002B15D0002322
:1033C0007B620CE07B6A9B0028333B4453F8202C43
:1033D0000B497B6A41F823207B6A01337B627B6A5D
:1033E000032BEFDD064800F0E3FB00BF2837BD46A6
:1033F00080BD00BF8407002000007A4494070020AD
:10340000A007002080B400AF024B1846BD4680BC28
:10341000704700BF00001F4380B400AF024B184646
:10342000BD4680BC704700BFF8334C4380B582B0C6
:1034300000AF1348FFF78AFC0023FB7117E0FB790C
:103440000F4A52F82310FB790E4A52F82320FB79D9
:103450008A1A0D4941F82320FA79FB79084951F875
:103460002220084941F82320FB790133FB71FB79C5
:10347000032BE4D900BF00BF0837BD4680BD00BFA5
:1034800064070020740700208407002080B582B004
:1034900000AF03460A46FB711346BB80414ABB8816
:1034A0001380FB79072B78D801A252F823F000BFD4
:1034B000D1340008ED340008FD340008113500084F
:1034C000353500085335000871350008933500087C
:1034D000344B00221A80B7F90430002B14BF0123AB
:1034E0000023DBB21846FFF751FE57E0B7F904306E
:1034F00000220021184600F057F84FE0BB885B42DD
:103500009BB21BB200220021184600F04DF845E0A6
:10351000B7F90430DA0F13445B1018B2BB881A46AF
:10352000D203D31A5B009BB21BB21A46002100F0F3
:103530003BF833E0B7F90430DA0F13445B1018B2EC
:10354000BB885B009BB21BB21A46002100F02CF82E
:1035500024E00020FFF7B0FDBB881A469200134418
:103560009BB21BB21A460021002000F01DF815E0A6
:103570000020FFF7A1FDBB881A469203D21A9200E1
:10358000D31A9BB21BB21A460021002000F00CF89F
:1035900004E00120FFF7FAFD00E000BF00BF08379C
:1035A000BD4680BD6007002080B584B000AF0346F3
:1035B000FB800B46BB8013467B80FFF723FFF86040
:1035C000714B4FF000021A60B7F906301846FDF74C
:1035D000D5FB03466D4A1360B7F902301846FDF774
:1035E000CDFB03466A491846FDF7D0FC0346F9684F
:1035F0001846FDF717FC03461A46664B1A60B7F9E2
:103600000630002B0BD1B7F90430002B07D1B7F9E6
:103610000230002B03D10120FFF7B8FDB1E05B4B76
:103620001B68594A126811461846FDF7F3FA03461B
:103630001A46584B1B6819461046FDF7EBFA03462D
:103640001846FDF7B5FD0346534A13604F4B1B6800
:103650004D4A126811461846FDF7DAFA03461A4633
:103660004C4B1B6819461046FDF7D4FA0346184622
:10367000FDF79EFD0346494A1360444B1B68424ACE
:10368000126811461846FDF7C3FA03461A46414B25
:103690001B6819461046FDF7BBFA03461846FDF7AE
:1036A00087FD03463E4A1360384B1B68364A126852
:1036B00011461846FDF7AEFA03461A46354B1B680D
:1036C00019461046FDF7A4FA03461846FDF770FDAB
:1036D0000346344A1360304B1B68B3F57A7F04DD30
:1036E0002D4B4FF47A721A6007E02B4B1B6813F5D1
:1036F0007A7F02DA284B2C4A1A60284B1B68B3F5F4
:103700007A7F04DD254B4FF47A721A6007E0234B71
:103710001B6813F57A7F02DA204B234A1A60204B8C
:103720001B68B3F57A7F04DD1D4B4FF47A721A6083
:1037300007E01B4B1B6813F57A7F02DA184B1A4A15
:103740001A60184B1B68B3F57A7F04DD154B4FF4F4
:103750007A721A6007E0134B1B6813F57A7F02DA5E
:10376000104B114A1A600C4B1B6818B20B4B1B68AC
:1037700019B20B4B1B681AB20A4B1B681BB2FFF73E
:1037800025FD1037BD4680BD4407002048070020B6
:1037900000007A444C070020500700205407002006
:1037A000580700205C07002018FCFFFFF8B500AFA9
:1037B0001448FFF74FFD144B1B78002B20D0134B00
:1037C0001B691846FDF7F4FC03461CB20F4B5B69FE
:1037D0001846FDF7EDFC03461DB20C4B9B691846DD
:1037E000FDF7E6FC03461EB2084BDB691846FDF701
:1037F000DFFC03461BB2324629462046FFF772FC27
:1038000000BFF8BD9807002094070020A007002003
:1038100080B582B000AF3B4683E803003A79BB78BD
:103820009A420AD1544B00221A80534BB3F900300C
:1038300019460020FFF72AFE70E0BB78012B1FD14C
:103840004D4BB3F90030C72B03DC4B4BC8221A8019
:1038500031E0FB78012B05D1484BB3F900305AB267
:10386000474B1A70464B93F900309AB2424BB3F96A
:1038700000309BB213449BB21AB23F4B1A801AE03D
:103880003B79012B17D13C4BB3F9003013F1C70F33
:1038900004DB394B4FF638721A800CE0364BB3F923
:1038A00000309AB2364B93F900309BB2D31A9BB2D8
:1038B0001AB2314B1A803B887C2B12D87B79012BB2
:1038C00007D12D4BB3F9003019460620FFF7DEFD76
:1038D00024E0294BB3F9003019460320FFF7D6FD49
:1038E0001CE03B88962B12D97B79012B07D1224B08
:1038F000B3F9003019460520FFF7C8FD0EE01E4B56
:10390000B3F9003019460420FFF7C0FD06E01A4B5A
:10391000B3F9003019460120FFF7B8FD164BB3F993
:103920000030002B07DA174B93F90030002B02D13F
:103930007B79002B0AD03B79002B02D07B79012BBD
:1039400016D1104B93F90030012B11D10E4B186892
:10395000002300220D4905F03FFC0A4B93F900308B
:10396000002B0CBF01230023DBB25AB2054B1A70A7
:1039700000BF0837BD4680BD2C000020300000206D
:103980002E000020C9070020E80400203400002099
:1039900080B483B000AF00237B6062E03A497A686C
:1039A00013469B001344DB000B444FF000021A60E7
:1039B00035497A6813469B001344DB000B440833F7
:1039C0004FF000021A6030497A6813469B00134496
:1039D000DB000B4418334FF000021A602A497A6862
:1039E00013469B001344DB000B441C334FF00002D2
:1039F0001A6025497A6813469B001344DB000B4488
:103A000020334FF000021A601F497A6813469B006A
:103A10001344DB000B4424334FF000021A601A49B0
:103A20007A6813469B001344DB000B440C33174A9F
:103A30001A6015497A6813469B001344DB000B4457
:103A40001033134A1A6010497A6813469B001344D6
:103A5000DB000B4414334FF07C521A607B68013357
:103A60007B607B68032B99DD0A4B0B4A5A60094B3C
:103A70004FF000029A60074B084ADA6000BF0C372B
:103A8000BD4680BC704700BFCC070020CDCC4C3F6A
:103A90008FC2753D38000020CDCCCC3ECDCCCC3D86
:103AA0002DE9F04182B000AF786039607B681B6817
:103AB00039681846FDF7ACF803461A467B689A61E8
:103AC0007B689C687B68DD687B689A697B681B6A99
:103AD00019461046FDF79CF8034619462846FDF79F
:103AE000A1F903461D467B681A697B689B691946E4
:103AF0001046FDF797F9034619462846FDF78AF860
:103B0000034698467B685D697B689E697B681B6A93
:103B100019461846FDF77EF8034619463046FDF76C
:103B200077F803461A467B68DB6919461046FDF7AD
:103B300071F8034619462846FDF774F903461946FD
:103B40004046FDF767F8034619462046FDF762F840
:103B500003461A467B689A607B681A6A7B68DA615A
:103B60007B689A697B681A627B689B680E49184675
:103B7000FDF714FB0346002B02D07B680A4A9A60CB
:103B80007B689B6809491846FDF7EAFA0346002B53
:103B900002D07B68054A9A607B689B6818460837A4
:103BA000BD46BDE8F08100BF0000C8440000C8C4A5
:103BB00080B584B000AF78600023FB6016E0FA683F
:103BC00013469B001344DB000C4A98187B68FA6884
:103BD00053F822301946FFF763FF01467B68FA6805
:103BE000043243F82210FB680133FB60FB68032BAF
:103BF000E5DD00BF00BF1037BD4680BDCC0700200B
:103C000080B485B000AF0346FB71FB79042B7BD8F1
:103C1000FB79042B40D10023FB6039E03D49FA6871
:103C200013469B001344DB000B4408334FF00002A3
:103C30001A603849FA6813469B001344DB000B44B2
:103C400018334FF000021A603249FA6813469B009D
:103C50001344DB000B441C334FF000021A602D4963
:103C6000FA6813469B001344DB000B4420334FF0EB
:103C700000021A602749FA6813469B001344DB00D0
:103C80000B4424334FF000021A60FB680133FB60E1
:103C9000FB68032BC2DD38E0FA791E4913469B000E
:103CA0001344DB000B4408334FF000021A60FA792A
:103CB000184913469B001344DB000B4418334FF0A4
:103CC00000021A60FA79134913469B001344DB0083
:103CD0000B441C334FF000021A60FA790D49134669
:103CE0009B001344DB000B4420334FF000021A60AA
:103CF000FA79084913469B001344DB000B44243334
:103D00004FF000021A6000E000BF1437BD4680BCCF
:103D1000704700BFCC07002080B485B000AF0346D9
:103D20003960FB71FB79042B1FD8FB79042B12D16E
:103D30000023FB600BE00F49FA6813469B00134415
:103D4000DB000B443A681A60FB680133FB60FB68D8
:103D5000032BF0DD0AE0FA79064913469B00134471
:103D6000DB000B443A681A6000E000BF1437BD4620
:103D700080BC7047CC07002080B483B000AF0346FE
:103D8000FB80B7F90630002B05DDFB8803F5FA63ED
:103D90009BB21BB20AE0B7F90630002B05DAFB88AC
:103DA000A3F5FA639BB21BB200E0002318460C3760
:103DB000BD4680BC7047000080B483B000AF0346AE
:103DC000FB71FB79002B01D00123FB71FB794FF4D0
:103DD000616203FB02F21C4B5A63FB794FF4616290
:103DE00003FB02F2184B9A63FB794FF4616203FB09
:103DF00002F2154BDA63FB794FF4616203FB02F2C6
:103E0000114B1A64FB794FF4616203FB02F20F4B12
:103E10005A63FB794FF4616203FB02F20B4B9A6326
:103E2000FB794FF4616203FB02F2084BDA63FB7922
:103E30004FF4616203FB02F2044B1A6400BF0C37BB
:103E4000BD4680BC704700BF00340140002C0140DB
:103E500080B584B000AF03460A46FB711346BB80B1
:103E6000B7F904301846FFF787FF0346FB81B7F91F
:103E70000E30B3F5616F02DB4FF46163FB81B7F97C
:103E80000E3013F5616F02DC4FF2F013FB81FB790A
:103E9000032B67D801A252F823F000BFAD3E000803
:103EA000DF3E0008113F00083B3F0008FB895B42F2
:103EB0009BB2FB81B7F90E30002B07DB2C4AB7F918
:103EC0000E3053632A4B00229A634CE0284B0022A9
:103ED0005A63B7F90E305A42254B9A6343E0FB8987
:103EE0005B429BB2FB81B7F90E30002B07DB204A07
:103EF000B7F90E30D3631E4B00221A6433E01C4B1B
:103F00000022DA63B7F90E305A42194B1A642AE0DC
:103F1000B7F90E30002B07DB164AB7F90E305363A2
:103F2000144B00229A631EE0124B00225A63B7F929
:103F30000E305A420F4B9A6315E0B7F90E30002B42
:103F400007DB0C4AB7F90E30D3630A4B00221A6420
:103F500009E0084B0022DA63B7F90E305A42054BEC
:103F60001A6400E000BF00BF1037BD4680BD00BF2F
:103F700000340140002C014080B500AF00212248F0
:103F800003F002FA0421204803F0FEF908211E483C
:103F900003F0FAF90C211C4803F0F6F900211B4844
:103FA00003F0F2F90421194803F0EEF9082117484B
:103FB00003F0EAF90C21154803F0E6F94FF08043CD
:103FC00047F6FF725A620421114803F088FB114B37
:103FD00047F6FF725A6204210F4803F080FB0F4B33
:103FE00047F6FF725A6204210D4803F078FB0D4B2F
:103FF00047F6FF725A6204210B4803F070FB0B482E
:1040000003F00AF900BF80BDF4080020A40A0020D4
:104010003C09002000040040840900200008004002
:10402000CC090020000C0040140A00205C0A00208B
:1040300080B485B000AF0346FB71FA7913469B004C
:1040400013445B00134403F5FA73064A82FB031220
:104050009210DB17D31AFB81FB8918461437BD4633
:1040600080BC70476766666680B500AF104B1B88E2
:1040700001339AB20E4B1A800E4B1A880C4B1B88D8
:104080009A4205D3012201210B4802F076FA04E09E
:1040900000220121084802F070FA054B1B88B3F595
:1040A000FA6F02D3024B00221A8000BF80BD00BF0E
:1040B0006C08002058000020000C014080B582B040
:1040C00000AF00237B6014E00E4A7B6813445A2241
:1040D0001A700C4A7B6813441B781846FFF7A8FF38
:1040E00003461946084A7B6822F813107B6801339F
:1040F0007B607B68002BE7DD00BF00BF0837BD4653
:1041000080BD00BF540000205800002090B583B04F
:1041100000AF03460A46FB711346BB71FB79002BC7
:1041200011D1BB79B42B10D8FB790A49BA79CA549A
:10413000FC79BB791846FFF77BFF03461A46064B0E
:1041400023F8142002E000BF00E000BF0C37BD469A
:1041500090BD00BF540000205800002080B500AF83
:10416000052000F003F80346184680BD80B586B0F0
:1041700000AF78607B68042B02DC7B68002B02DCDC
:104180004FF0000379E04FF00003FB604FF00003B5
:104190007B610023FB7461E001224FF40061394828
:1041A00002F0EBF9142004F090FE00224FF40061BD
:1041B000344802F0E2F900BF4FF48051314802F078
:1041C000C5F90346002BF7D02F4B01221A70FB7C58
:1041D0000133FB7410E02D4B1B683B813B8942F29D
:1041E0000F72934208D9284B00221A70274B0022E5
:1041F0001A604FF0000340E04FF48051214802F074
:10420000A5F90346012BE6D01F4B00221A70204B64
:104210005B6A7B8179891D4B1A6813469B001344A6
:104220005B000B441846FCF74DF94FF00002194BA8
:10423000FCF7ECFA02460B4610461946FCF794FCD4
:104240000346FB60F9687869FCF7E4FC03467B6190
:104250000E4B00221A600A2004F037FEFB7C7A68BD
:104260009A4299D17868FCF789FD03461946786926
:10427000FCF78CFE0346FB60FB6818461837BD460A
:1042800080BD00BF001C01407408002070080020A1
:104290000014004000404D4080B584B000AF3B1D8D
:1042A00000221A605A609A60184B194A1A60174B1C
:1042B00000229A60154B00221A73144B00221A75C3
:1042C000124B4FF46022DA61104B00225A600F4B00
:1042D00001221A610D4801F0D9F90346002B01D0E3
:1042E00000F096FA10237B600123BB600023FB6083
:1042F0003B1D1946054801F073FC0346002B01D015
:1043000000F086FA00BF1037BD4680BD7808002057
:104310000024014080B485B000AF78607B681B68E2
:10432000094A93420BD1094B9B69084A43F4007335
:104330009361064B9B6903F40073FB60FB6800BF4D
:104340001437BD4680BC7047002401400010024075
:1043500080B58CB000AF07F1200300221A605A60CC
:104360009A60DA606F4B9B696E4A43F04003936139
:104370006C4B9B6903F04003FB61FB69694B9B69D4
:10438000684A43F004039361664B9B6903F004039E
:10439000BB61BB69634B9B69624A43F0080393614D
:1043A000604B9B6903F008037B617B695D4B9B69F4
:1043B0005C4A43F0800393615A4B9B6903F080038E
:1043C0003B613B69574B9B69564A43F48073936149
:1043D000544B9B6903F48073FB60FB68514B9B69F2
:1043E000504A43F0200393614E4B9B6903F0200336
:1043F000BB60BB684B4B9B694A4A43F01003936117
:10440000484B9B6903F010037B607B6800229C2172
:10441000454802F0B2F80022B021444802F0ADF85D
:1044200000220121424802F0A8F801224FF4006165
:10443000404802F0A2F800224DF206013E4802F088
:104440009CF89C233B6201237B620023BB62022316
:10445000FB6207F120031946334801F0E3FEB02365
:104460003B6201237B620023BB620123FB6207F1F5
:10447000200319462D4801F0D5FE40233B6200235E
:104480007B620023BB6207F120031946274801F035
:10449000C9FE01233B6201237B620023BB6202232E
:1044A000FB6207F120031946214801F0BBFE4FF4DF
:1044B00000633B6201237B620023BB620323FB6238
:1044C00007F1200319461B4801F0ACFE4FF480535E
:1044D0003B6200237B620023BB6207F12003194685
:1044E000144801F09FFE4DF206033B6201237B62FC
:1044F0000023BB620223FB6207F1200319460E482A
:1045000001F090FE38233B6200237B620023BB62F4
:1045100007F120031946084801F084FE00BF303738
:10452000BD4680BD00100240001801400008014057
:10453000000C0140001C01400020014080B483B009
:1045400000AF78607B681B6823F080027B681A608C
:1045500000BF0C37BD4680BC704780B483B000AF4D
:1045600078607B681B6823F040027B681A6000BF9C
:104570000C37BD4680BC704780B483B000AF786014
:1045800039607B68DB6823F0FE023B681A437B6876
:10459000DA6000BF0C37BD4680BC704780B483B082
:1045A00000AF78607B68DB6823F001027B68DA602B
:1045B00000BF0C37BD4680BC7047000080B485B09A
:1045C00000AF7860084BDA6907497B681343CB6119
:1045D000054BDA697B681340FB60FB6800BF14374A
:1045E000BD4680BC704700BF0010024080B485B05B
:1045F00000AF7860084B9A6907497B6813438B6169
:10460000054B9A697B681340FB60FB6800BF143759
:10461000BD4680BC704700BF0010024080B58CB022
:1046200000AF07F1180300221A605A609A60DA603E
:104630001A615A613B1D00221A605A609A60DA6062
:104640001A610820FFF7D2FF4CF2C0037B600923F8
:10465000BB600323FB6004233B613B1D19461648E6
:1046600004F093F94FF40010FFF7A8FF1348FFF789
:1046700095FF1248FFF771FF1048FFF75FFF002317
:10468000BB610F4BFB6100233B6200237B624FF455
:104690008063BB624FF48043FB6207F11803194645
:1046A000064804F0C7FA00210448FFF765FF00BF81
:1046B0003037BD4680BD00BF000C014000540040B3
:1046C000A086010080B500AF00F08AFF00F01CF862
:1046D000FFF73EFEFFF7A2FF00F082FC00F00EFBAA
:1046E00000F082FB00F0D4FB00F026FC00F0ACFCF4
:1046F00000F040FAFFF7D0FDFEF76EFAFEF796FBEA
:1047000004F0DCFB00BFFDE780B596B000AF07F119
:10471000300328220021184607F0AFF907F11C03E7
:1047200000221A605A609A60DA601A613B1D00220A
:104730001A605A609A60DA601A615A6101233B6319
:104740004FF480337B630023BB6301233B6402236C
:10475000FB644FF480333B654FF4E0137B6507F156
:104760003003184601F03AFF0346002B01D000F059
:104770004FF80F23FB6102233B6200237B624FF45F
:104780008063BB620023FB6207F11C030221184611
:1047900002F0A6F90346002B01D000F039F80223FD
:1047A0007B600023FB603B1D184602F057FB03466D
:1047B000002B01D000F02CF800BF5837BD4680BD5B
:1047C00080B582B000AF78607B681B680C4A93426A
:1047D00001D100F01BFF7B681B680A4A93420AD193
:1047E000094B1B78002B04D0084B1B680133074A88
:1047F0001360FFF739FC00BF0837BD4680BD00BF1E
:1048000000100040001400407408002070080020D0
:1048100080B400AF72B600BF00BFFDE780B584B0C2
:1048200000AF184B9B69174A43F001039361154B86
:104830009B6903F00103BB60BB68124BDB69114A43
:1048400043F08053D3610F4BDB6903F080537B60EF
:104850007B6800220F216FF0010001F0B8FC0A4BC9
:104860005B68FB60FB6823F0E063FB60FB6843F080
:104870000073FB60044AFB68536000BF1037BD46FD
:1048800080BD00BF001002400000014080B58EB026
:1048900000AF78600023FB620023BB62002387F82F
:1048A0003330344BDB69334A43F01003D361314B6F
:1048B000DB6903F01003FB60FB6807F1100207F1EE
:1048C00014031146184602F07BFA3B6AFB62FB6A4E
:1048D000002B03D102F04CFA786304E002F048FAAE
:1048E00003465B007B637B6B234AA2FB03239B0C89
:1048F000013BBB62214B224A1A60204B40F2E73257
:10490000DA601E4ABB6A53601C4B00221A611B4BC3
:1049100000229A60194B00229A61184802F02CFC80
:10492000034687F8333097F83330002B1BD11348F8
:1049300002F072FC034687F8333097F83330002BCF
:1049400011D1362001F05FFC7B680F2B08D80022C4
:104950007968362001F03BFC0A4A7B68136002E06C
:10496000012387F8333097F8333018463837BD467F
:1049700080BD00BF0010024083DE1B43A80800205A
:10498000001000406000002080B400AF00BFFDE7D1
:1049900080B400AF00BFFDE780B400AF00BFFDE70B
:1049A00080B400AF00BFFDE780B400AF00BFFDE7FB
:1049B00080B400AF00BFBD4680BC704780B500AF7B
:1049C000024802F01AFF00BF80BD00BFA808002007
:1049D00080B500AF024802F010FF00BF80BD00BFED
:1049E0005C0A002080B400AF01231846BD4680BC9D
:1049F000704780B582B000AF7860396007F090F8FA
:104A0000034616221A604FF0FF3318460837BD469A
:104A100080BD80B582B000AF78604FF0FF3178681C
:104A2000FFF7E7FF00BFFDE780B586B000AFF86095
:104A3000B9607A6000237B610AE0AFF30080014631
:104A4000BB685A1CBA60CAB21A707B6901337B61B9
:104A50007A697B689A42F0DB7B6818461837BD4656
:104A600080BD80B586B000AFF860B9607A60002381
:104A70007B6109E0BB685A1CBA601B781846AFF32B
:104A800000807B6901337B617A697B689A42F1DB44
:104A90007B6818461837BD4680BD80B483B000AF30
:104AA00078604FF0FF3318460C37BD4680BC704726
:104AB00080B483B000AF786039603B684FF4005237
:104AC0005A60002318460C37BD4680BC704780B43E
:104AD00083B000AF7860012318460C37BD4680BC18
:104AE000704780B485B000AFF860B9607A60002389
:104AF00018461437BD4680BC7047000080B586B0AC
:104B000000AF7860144A154BD31A7B617B693B6117
:104B1000134B1B68002B02D1114B124A1A60104B29
:104B20001A687B6813443A699A4207D206F0F8FF84
:104B300003460C221A604FF0FF3309E0084B1B6854
:104B4000FB60074B1A687B681344054A1360FB68D7
:104B500018461837BD4680BD000001200004000043
:104B6000F0080020905D002080B400AF00BFBD467B
:104B700080BC704780B596B000AF07F148030022B3
:104B80001A605A609A60DA6007F1400300221A60E6
:104B90005A6007F1240300221A605A609A60DA60B2
:104BA0001A615A619A613B1D20220021184606F0C5
:104BB00064FF504B504A1A604E4B00225A604D4BD6
:104BC00000229A604B4B40F60F62DA60494B00229C
:104BD0001A61484B00225A61464B80229A6145482F
:104BE00002F0CAFA0346002B01D0FFF711FE4FF482
:104BF0008053BB6407F1480319463E4803F04CF864
:104C00000346002B01D0FFF703FE3A4802F064FB95
:104C10000346002B01D0FFF7FBFD00233B6400237C
:104C20007B6407F140031946324803F027FD034631
:104C3000002B01D0FFF7ECFD60237B620023BB62F9
:104C40000023FB6200233B6300237B630023BB63E1
:104C50000023FB6307F1240300221946254802F0D4
:104C600059FF0346002B01D0FFF7D2FD07F12403C3
:104C7000042219461F4802F04DFF0346002B01D0C5
:104C8000FFF7C6FD07F1240308221946194802F070
:104C900041FF0346002B01D0FFF7BAFD07F12403C3
:104CA0000C221946134802F035FF0346002B01D0B1
:104CB000FFF7AEFD00237B600023BB600023FB6099
:104CC00000233B6100237B614FF40053BB61002351
:104CD0003B623B1D1946074803F03CFD0346002B91
:104CE00001D0FFF795FD034800F0EAFB00BF5837FD
:104CF000BD4680BDF4080020002C014080B590B076
:104D000000AF07F11C0324220021184606F0B5FE6F
:104D100007F1140300221A605A603B1D00221A603A
:104D20005A609A60DA602F4B4FF080421A602D4B28
:104D300000225A602B4B00229A602A4B4FF6FF72DA
:104D4000DA60284B00221A61264B00229A6125481E
:104D500002F0D4FB0346002B01D0FFF759FD0323DB
:104D6000FB6100233B6201237B620023BB620023C3
:104D7000FB6200233B6301237B630023BB630023AF
:104D8000FB6307F11C031946164802F006FC0346B4
:104D9000002B01D0FFF73CFD00237B610023BB61AA
:104DA00007F1140319460F4803F068FC0346002B73
:104DB00001D0FFF72DFD00237B600123BB600023A2
:104DC000FB6000233B613B1D08221946054802F0A9
:104DD00004FE0346002B01D0FFF71AFD00BF403749
:104DE000BD4680BD3C09002080B58CB000AF07F106
:104DF0000C0324220021184606F03FFE3B1D002232
:104E00001A605A60204B214A1A601F4B00225A60D8
:104E10001D4B00229A601C4B4FF6FF72DA601A4B52
:104E200000221A61184B00229A610323FB600023C1
:104E30003B6101237B610023BB610023FB610023F5
:104E40003B6201237B620023BB620023FB6207F10C
:104E50000C0319460C4802F0A0FB0346002B01D0BE
:104E6000FFF7D6FC00237B600023BB603B1D194687
:104E7000054803F003FC0346002B01D0FFF7C8FCF4
:104E800000BF3037BD4680BD8409002000040040CB
:104E900080B58CB000AF07F10C0324220021184626
:104EA00006F0EBFD3B1D00221A605A60204B214AA0
:104EB0001A601F4B00225A601D4B00229A601C4B47
:104EC0004FF6FF72DA601A4B00221A61184B00226B
:104ED0009A610323FB6000233B6101237B61002374
:104EE000BB610023FB6100233B6201237B62002343
:104EF000BB620023FB6207F10C0319460C4802F069
:104F00004CFB0346002B01D0FFF782FC00237B60A3
:104F10000023BB603B1D1946054803F0AFFB034669
:104F2000002B01D0FFF774FC00BF3037BD4680BDB9
:104F3000CC0900200008004080B58CB000AF07F11C
:104F40000C0324220021184606F097FD3B1D002289
:104F50001A605A60204B214A1A601F4B00225A6087
:104F60001D4B00229A601C4B4FF6FF72DA601A4B01
:104F700000221A61184B00229A610323FB60002370
:104F80003B6101237B610023BB610023FB610023A4
:104F90003B6201237B620023BB620023FB6207F1BB
:104FA0000C0319460C4802F0F8FA0346002B01D016
:104FB000FFF72EFC00237B600023BB603B1D1946DE
:104FC000054803F05BFB0346002B01D0FFF720FCF4
:104FD00000BF3037BD4680BD140A0020000C0040E1
:104FE00080B582B000AF3B4600221A605A60144B75
:104FF000144A1A60124B47225A60114B00229A60E1
:105000000F4B0922DA600E4B00229A610C4802F025
:10501000B3F80346002B01D0FFF7FAFB00233B60F7
:1050200000237B603B461946054803F027FB0346F7
:10503000002B01D0FFF7ECFB00BF0837BD4680BD59
:105040005C0A00200014004080B596B000AF07F164
:10505000480300221A605A609A60DA6007F1400340
:1050600000221A605A6007F1240300221A605A6075
:105070009A60DA601A615A619A613B1D2022002110
:10508000184606F0FAFC504B504A1A604E4B00226C
:105090005A604D4B00229A604B4B40F60F62DA602B
:1050A000494B00221A61484B00225A61464B80222C
:1050B0009A61454802F060F80346002B01D0FFF7E3
:1050C000A7FB4FF48053BB6407F1480319463E48E1
:1050D00002F0E2FD0346002B01D0FFF799FB3A48AE
:1050E00002F0FAF80346002B01D0FFF791FB0023F2
:1050F0003B6400237B6407F140031946324803F008
:10510000BDFA0346002B01D0FFF782FB60237B62D0
:105110000023BB620023FB6200233B6300237B630D
:105120000023BB630023FB6307F12403002219461D
:10513000254802F0EFFC0346002B01D0FFF768FB87
:1051400007F12403042219461F4802F0E3FC03463A
:10515000002B01D0FFF75CFB07F12403082219465E
:10516000194802F0D7FC0346002B01D0FFF750FB93
:1051700007F124030C221946134802F0CBFC034626
:10518000002B01D0FFF744FB00237B600023BB60B2
:105190000023FB6000233B6100237B614FF400533D
:1051A000BB6100233B623B1D1946074803F0D2FA5E
:1051B0000346002B01D0FFF72BFB034800F080F9DA
:1051C00000BF5837BD4680BDA40A0020003401400E
:1051D00080B586B000AF78607B681B681F4A934239
:1051E0000CD11F4B9B691E4A43F4006393611C4B17
:1051F0009B6903F400637B617B692AE07B681B6821
:10520000184A934214D1164BDB69154A43F0200328
:10521000D361134BDB6903F020033B613B69002240
:105220000521372000F0D3FF372000F0ECFF10E01D
:105230007B681B680C4A93420BD1094B9B69084A57
:1052400043F400539361064B9B6903F40053FB60E6
:10525000FB6800BF1837BD4680BD00BF002C014071
:1052600000100240001400400034014080B58AB0B4
:1052700000AF786007F1140300221A605A609A6048
:10528000DA607B681B68B3F1804F4ED1294BDB6934
:10529000284A43F00103D361264BDB6903F0010385
:1052A0003B613B69234B9B69224A43F004039361B2
:1052B000204B9B6903F00403FB60FB681D4B9B695B
:1052C0001C4A43F0080393611A4B9B6903F00803DF
:1052D000BB60BB6848F204037B610023BB61002311
:1052E000FB6107F114031946134800F09BFF0823E4
:1052F0007B610023BB610023FB6107F114031946A6
:105300000E4800F08FFF0E4B5B687B627B6A23F4D4
:1053100040737B627B6A43F0E0637B627B6A43F4A9
:1053200080737B62064A7B6A536000BF2837BD46A4
:1053300080BD00BF0010024000080140000C014089
:105340000000014080B58EB000AF786007F1200307
:1053500000221A605A609A60DA607B681B68504AC3
:10536000934236D14F4BDB694E4A43F00203D3617F
:105370004C4BDB6903F00203FB61FB69494B9B6902
:10538000484A43F008039361464B9B6903F00803C6
:10539000BB61BB6930233B6200237B620023BB629D
:1053A00007F120031946404800F03CFF3F4B5B6883
:1053B0003B633B6B23F440633B633B6B43F0E06335
:1053C0003B633B6B43F400633B63384A3B6B536086
:1053D00061E07B681B68364A934233D1314BDB690D
:1053E000304A43F00403D3612E4BDB6903F004031E
:1053F0007B617B692B4B9B692A4A43F020039361B5
:10540000284B9B6903F020033B613B694FF44053F9
:105410003B6200237B620023BB6207F12003194635
:10542000244800F0FFFE214B5B687B637B6B43F0FD
:10543000E0637B637B6B43F480537B631B4A7B6B32
:10544000536028E07B681B681B4A934223D1154BAD
:10545000DB69144A43F00803D361124BDB6903F0A4
:105460000803FB60FB680F4B9B690E4A43F0040383
:1054700093610C4B9B6903F00403BB60BB6803237F
:105480003B6200237B620023BB6207F120031946C5
:105490000A4800F0C7FE00BF3837BD4680BD00BFD8
:1054A0000004004000100240000C014000000140D8
:1054B0000008004000140140000C004000080140BA
:1054C00080B58AB000AF786007F1140300221A603B
:1054D0005A609A60DA607B681B68284A93422BD135
:1054E000274B9B69264A43F040039361244B9B69F9
:1054F00003F040033B613B694FF4D4437B610223DB
:10550000BB6102233B6207F1140319461D4800F0FA
:1055100089FE1D4B5B687B627B6A23F0C0037B6264
:105520007B6A43F0E0637B627B6A43F0C0037B628B
:10553000154A7B6A53601DE07B681B68134A9342DF
:1055400018D10F4B9B690E4A43F0100393610C4B2B
:105550009B6903F01003FB60FB684FF470737B6181
:105560000223BB6102233B6207F11403194608487A
:1055700000F058FE00BF2837BD4680BD002C01401A
:1055800000100240001801400000014000340140BA
:1055900000100140FFF7E8FA0B480C490C4A0023C1
:1055A00002E0D458C4500433C4188C42F9D3094AD9
:1055B000094C002301E013600432A242FBD306F041
:1055C000B5FAFFF77FF87047000000203402002092
:1055D000D0E8000834020020905D0020FEE70000C3
:1055E00080B500AF084B1B68074A43F010031360F7
:1055F000032000F0E1FD0F20FFF748F9FFF70EF957
:105600000023184680BD00BF0020024080B400AFD8
:10561000054B1B781A46054B1B681344034A13605D
:1056200000BFBD4680BC704764000020EC0A00202B
:1056300080B400AF024B1B681846BD4680BC704763
:10564000EC0A002080B584B000AF7860FFF7F0FF6F
:10565000B8607B68FB60FB68B3F1FF3F05D00A4B85
:105660001B781A46FB681344FB6000BFFFF7E0FF9E
:105670000246BB68D31AFA689A42F7D800BF00BF47
:105680001037BD4680BD00BF6400002080B586B0E5
:1056900000AF78600023FB7500233B610023BB60F3
:1056A0000023FB607B68002B01D10123CEE07B68E7
:1056B0009B68002B7B689B6A002B09D17B680022CA
:1056C000DA627B68002283F824207868FEF722FEE5
:1056D000786800F0D7FB0346FB757B689B6A03F094
:1056E0001003002B40F0A980FB7D002B40F0A5802B
:1056F0007B689B6A23F4885323F0020343F0020281
:105700007B689A627B685A687B681B6851498B4248
:105710000AD17B68DB69B3F5402F02D07B68DB6977
:1057200004E04FF4002301E07B68DB691A437B68E7
:105730001B7B5B001343BA681343BB607B689B68A9
:10574000B3F5807F03D07B689B68012B02D14FF4B7
:10575000807300E000233A6913433B617B681B7D43
:10576000012B19D17B681B7B002B09D17B689B69BE
:10577000013B5A033B69134343F400633B610BE075
:105780007B689B6A43F020027B689A627B68DB6AD5
:1057900043F001027B68DA627B681B685B6823F474
:1057A00069417B681B683A690A435A607B681B68D9
:1057B0009A68294B13407A681268B9680B43936062
:1057C0007B689B68B3F5807F03D07B689B68012B67
:1057D00004D17B681B69013B1B05FB607B681B6870
:1057E000DB6A23F470017B681B68FA680A43DA629B
:1057F0007B681B689A68194B1340BA689A420BD1B0
:105800007B680022DA627B689B6A23F0030343F023
:1058100001027B689A6218E07B689B6A23F012039E
:1058200043F010027B689A627B68DB6A43F00102F6
:105830007B68DA620123FB7507E07B689B6A43F0B3
:1058400010027B689A620123FB75FB7D18461837AE
:10585000BD4680BD003C0140FDF7E1FFFE0E1FFF8D
:1058600080B584B000AF78600023FB737B6893F849
:105870002430012B01D1022398E07B68012283F8B8
:105880002420786800F0A4FA0346FB73FB7B002B0E
:1058900040F087807B689B6A23F4407323F0010308
:1058A00043F480727B689A627B681B68414A93422A
:1058B00005D1414B5B6803F47023002B15D17B6845
:1058C0009B6A23F480127B689A627B681B685B6822
:1058D00003F48063002B26D07B689B6A23F440533B
:1058E00043F480527B689A621DE07B689B6A43F4B4
:1058F00080127B689A627B681B682F4A934204D0AF
:105900007B681B682B4A93420DD12B4B5B6803F4D9
:105910008063002B07D07B689B6A23F4405343F4D9
:1059200080527B689A627B689B6A03F48053002BE9
:1059300006D07B68DB6A23F006027B68DA6202E04D
:105940007B680022DA627B68002283F824207B686F
:105950001B686FF002021A607B681B689B6803F487
:105960006023B3F5602F13D17B681B68114A934203
:1059700005D1114B5B6803F47023002B08D17B68C1
:105980001B689A687B681B6842F4A0029A600CE06E
:105990007B681B689A687B681B6842F480129A6077
:1059A00003E07B68002283F82420FB7B1846103735
:1059B000BD4680BD002801400024014090B587B05D
:1059C00000AF7860396000237B610023FB60002317
:1059D0003B61FFF72DFE78617B681B689B6803F4D1
:1059E0008073002B0BD07B689B6A43F020027B689E
:1059F0009A627B68002283F824200123D3E07B682D
:105A00001B685B6803F48073002B31D17B681B68D3
:105A1000DB6A03F47003002B2AD121E03B68B3F169
:105A2000FF3F1DD03B68002B07D0FFF701FE024669
:105A30007B69D31A3A689A4212D27B681B681B684A
:105A400003F00203002B0BD17B689B6A43F0040236
:105A50007B689A627B68002283F824200323A2E0FB
:105A60007B681B681B6803F00203002BD6D070E034
:105A70004F4B1C68022001F0A7FA0346B4FBF3F277
:105A80007B681B6819694B4B0B40002B18D17B6856
:105A90001B68D968484B0B40002B11D17B681B68F1
:105AA0001969464B0B40002B08D17B681B68D968ED
:105AB000434B0B40002B01D1142320E029231EE08F
:105AC0007B681B6819693D4B0B40002B06D17B6836
:105AD0001B68D9683A4B0B40002B0DD07B681B68C4
